{
  "_format": "hh-sol-artifact-1",
  "contractName": "Action",
  "sourceName": "contracts/ActionCollectible.sol",
  "abi": [
    {
      "inputs": [],
      "stateMutability": "nonpayable",
      "type": "constructor"
    },
    {
      "anonymous": false,
      "inputs": [
        {
          "indexed": true,
          "internalType": "address",
          "name": "owner",
          "type": "address"
        },
        {
          "indexed": true,
          "internalType": "address",
          "name": "approved",
          "type": "address"
        },
        {
          "indexed": true,
          "internalType": "uint256",
          "name": "tokenId",
          "type": "uint256"
        }
      ],
      "name": "Approval",
      "type": "event"
    },
    {
      "anonymous": false,
      "inputs": [
        {
          "indexed": true,
          "internalType": "address",
          "name": "owner",
          "type": "address"
        },
        {
          "indexed": true,
          "internalType": "address",
          "name": "operator",
          "type": "address"
        },
        {
          "indexed": false,
          "internalType": "bool",
          "name": "approved",
          "type": "bool"
        }
      ],
      "name": "ApprovalForAll",
      "type": "event"
    },
    {
      "anonymous": false,
      "inputs": [
        {
          "indexed": true,
          "internalType": "address",
          "name": "previousOwner",
          "type": "address"
        },
        {
          "indexed": true,
          "internalType": "address",
          "name": "newOwner",
          "type": "address"
        }
      ],
      "name": "OwnershipTransferred",
      "type": "event"
    },
    {
      "anonymous": false,
      "inputs": [
        {
          "indexed": true,
          "internalType": "address",
          "name": "from",
          "type": "address"
        },
        {
          "indexed": true,
          "internalType": "address",
          "name": "to",
          "type": "address"
        },
        {
          "indexed": true,
          "internalType": "uint256",
          "name": "tokenId",
          "type": "uint256"
        }
      ],
      "name": "Transfer",
      "type": "event"
    },
    {
      "inputs": [
        {
          "internalType": "address",
          "name": "to",
          "type": "address"
        },
        {
          "internalType": "uint256",
          "name": "tokenId",
          "type": "uint256"
        }
      ],
      "name": "approve",
      "outputs": [],
      "stateMutability": "nonpayable",
      "type": "function"
    },
    {
      "inputs": [
        {
          "internalType": "address",
          "name": "owner",
          "type": "address"
        }
      ],
      "name": "balanceOf",
      "outputs": [
        {
          "internalType": "uint256",
          "name": "",
          "type": "uint256"
        }
      ],
      "stateMutability": "view",
      "type": "function"
    },
    {
      "inputs": [
        {
          "internalType": "uint256",
          "name": "tokenId",
          "type": "uint256"
        }
      ],
      "name": "getApproved",
      "outputs": [
        {
          "internalType": "address",
          "name": "",
          "type": "address"
        }
      ],
      "stateMutability": "view",
      "type": "function"
    },
    {
      "inputs": [
        {
          "internalType": "address",
          "name": "owner",
          "type": "address"
        },
        {
          "internalType": "address",
          "name": "operator",
          "type": "address"
        }
      ],
      "name": "isApprovedForAll",
      "outputs": [
        {
          "internalType": "bool",
          "name": "",
          "type": "bool"
        }
      ],
      "stateMutability": "view",
      "type": "function"
    },
    {
      "inputs": [
        {
          "internalType": "address",
          "name": "recipient",
          "type": "address"
        },
        {
          "internalType": "string",
          "name": "tokenURI",
          "type": "string"
        }
      ],
      "name": "mint",
      "outputs": [
        {
          "internalType": "uint256",
          "name": "",
          "type": "uint256"
        }
      ],
      "stateMutability": "payable",
      "type": "function"
    },
    {
      "inputs": [],
      "name": "name",
      "outputs": [
        {
          "internalType": "string",
          "name": "",
          "type": "string"
        }
      ],
      "stateMutability": "view",
      "type": "function"
    },
    {
      "inputs": [],
      "name": "owner",
      "outputs": [
        {
          "internalType": "address",
          "name": "",
          "type": "address"
        }
      ],
      "stateMutability": "view",
      "type": "function"
    },
    {
      "inputs": [
        {
          "internalType": "uint256",
          "name": "tokenId",
          "type": "uint256"
        }
      ],
      "name": "ownerOf",
      "outputs": [
        {
          "internalType": "address",
          "name": "",
          "type": "address"
        }
      ],
      "stateMutability": "view",
      "type": "function"
    },
    {
      "inputs": [],
      "name": "renounceOwnership",
      "outputs": [],
      "stateMutability": "nonpayable",
      "type": "function"
    },
    {
      "inputs": [
        {
          "internalType": "address",
          "name": "from",
          "type": "address"
        },
        {
          "internalType": "address",
          "name": "to",
          "type": "address"
        },
        {
          "internalType": "uint256",
          "name": "tokenId",
          "type": "uint256"
        }
      ],
      "name": "safeTransferFrom",
      "outputs": [],
      "stateMutability": "nonpayable",
      "type": "function"
    },
    {
      "inputs": [
        {
          "internalType": "address",
          "name": "from",
          "type": "address"
        },
        {
          "internalType": "address",
          "name": "to",
          "type": "address"
        },
        {
          "internalType": "uint256",
          "name": "tokenId",
          "type": "uint256"
        },
        {
          "internalType": "bytes",
          "name": "data",
          "type": "bytes"
        }
      ],
      "name": "safeTransferFrom",
      "outputs": [],
      "stateMutability": "nonpayable",
      "type": "function"
    },
    {
      "inputs": [
        {
          "internalType": "address",
          "name": "operator",
          "type": "address"
        },
        {
          "internalType": "bool",
          "name": "approved",
          "type": "bool"
        }
      ],
      "name": "setApprovalForAll",
      "outputs": [],
      "stateMutability": "nonpayable",
      "type": "function"
    },
    {
      "inputs": [
        {
          "internalType": "bytes4",
          "name": "interfaceId",
          "type": "bytes4"
        }
      ],
      "name": "supportsInterface",
      "outputs": [
        {
          "internalType": "bool",
          "name": "",
          "type": "bool"
        }
      ],
      "stateMutability": "view",
      "type": "function"
    },
    {
      "inputs": [],
      "name": "symbol",
      "outputs": [
        {
          "internalType": "string",
          "name": "",
          "type": "string"
        }
      ],
      "stateMutability": "view",
      "type": "function"
    },
    {
      "inputs": [
        {
          "internalType": "uint256",
          "name": "index",
          "type": "uint256"
        }
      ],
      "name": "tokenByIndex",
      "outputs": [
        {
          "internalType": "uint256",
          "name": "",
          "type": "uint256"
        }
      ],
      "stateMutability": "view",
      "type": "function"
    },
    {
      "inputs": [
        {
          "internalType": "address",
          "name": "owner",
          "type": "address"
        },
        {
          "internalType": "uint256",
          "name": "index",
          "type": "uint256"
        }
      ],
      "name": "tokenOfOwnerByIndex",
      "outputs": [
        {
          "internalType": "uint256",
          "name": "",
          "type": "uint256"
        }
      ],
      "stateMutability": "view",
      "type": "function"
    },
    {
      "inputs": [
        {
          "internalType": "uint256",
          "name": "tokenId",
          "type": "uint256"
        }
      ],
      "name": "tokenURI",
      "outputs": [
        {
          "internalType": "string",
          "name": "",
          "type": "string"
        }
      ],
      "stateMutability": "view",
      "type": "function"
    },
    {
      "inputs": [],
      "name": "totalSupply",
      "outputs": [
        {
          "internalType": "uint256",
          "name": "",
          "type": "uint256"
        }
      ],
      "stateMutability": "view",
      "type": "function"
    },
    {
      "inputs": [
        {
          "internalType": "address",
          "name": "from",
          "type": "address"
        },
        {
          "internalType": "address",
          "name": "to",
          "type": "address"
        },
        {
          "internalType": "uint256",
          "name": "tokenId",
          "type": "uint256"
        }
      ],
      "name": "transferFrom",
      "outputs": [],
      "stateMutability": "nonpayable",
      "type": "function"
    },
    {
      "inputs": [
        {
          "internalType": "address",
          "name": "newOwner",
          "type": "address"
        }
      ],
      "name": "transferOwnership",
      "outputs": [],
      "stateMutability": "nonpayable",
      "type": "function"
    }
  ],
  "bytecode": "0x60806040526658d15e17628000600d553480156200001c57600080fd5b506040518060400160405280600c81526020017f506f6c6c6f636b657371756500000000000000000000000000000000000000008152506040518060400160405280600681526020017f416374696f6e000000000000000000000000000000000000000000000000000081525081600090816200009a91906200041d565b508060019081620000ac91906200041d565b505050620000cf620000c3620000d560201b60201c565b620000dd60201b60201c565b62000504565b600033905090565b6000600b60009054906101000a900473ffffffffffffffffffffffffffffffffffffffff16905081600b60006101000a81548173ffffffffffffffffffffffffffffffffffffffff021916908373ffffffffffffffffffffffffffffffffffffffff1602179055508173ffffffffffffffffffffffffffffffffffffffff168173ffffffffffffffffffffffffffffffffffffffff167f8be0079c531659141344cd1fd0a4f28419497f9722a3daafe3b4186f6b6457e060405160405180910390a35050565b600081519050919050565b7f4e487b7100000000000000000000000000000000000000000000000000000000600052604160045260246000fd5b7f4e487b7100000000000000000000000000000000000000000000000000000000600052602260045260246000fd5b600060028204905060018216806200022557607f821691505b6020821081036200023b576200023a620001dd565b5b50919050565b60008190508160005260206000209050919050565b60006020601f8301049050919050565b600082821b905092915050565b600060088302620002a57fffffffffffffffffffffffffffffffffffffffffffffffffffffffffffffffff8262000266565b620002b1868362000266565b95508019841693508086168417925050509392505050565b6000819050919050565b6000819050919050565b6000620002fe620002f8620002f284620002c9565b620002d3565b620002c9565b9050919050565b6000819050919050565b6200031a83620002dd565b62000332620003298262000305565b84845462000273565b825550505050565b600090565b620003496200033a565b620003568184846200030f565b505050565b5b818110156200037e57620003726000826200033f565b6001810190506200035c565b5050565b601f821115620003cd57620003978162000241565b620003a28462000256565b81016020851015620003b2578190505b620003ca620003c18562000256565b8301826200035b565b50505b505050565b600082821c905092915050565b6000620003f260001984600802620003d2565b1980831691505092915050565b60006200040d8383620003df565b9150826002028217905092915050565b6200042882620001a3565b67ffffffffffffffff811115620004445762000443620001ae565b5b6200045082546200020c565b6200045d82828562000382565b600060209050601f83116001811462000495576000841562000480578287015190505b6200048c8582620003ff565b865550620004fc565b601f198416620004a58662000241565b60005b82811015620004cf57848901518255600182019150602085019450602081019050620004a8565b86831015620004ef5784890151620004eb601f891682620003df565b8355505b6001600288020188555050505b505050505050565b61395d80620005146000396000f3fe60806040526004361061011f5760003560e01c806370a08231116100a0578063b88d4fde11610064578063b88d4fde146103f9578063c87b56dd14610422578063d0def5211461045f578063e985e9c51461048f578063f2fde38b146104cc5761011f565b806370a0823114610326578063715018a6146103635780638da5cb5b1461037a57806395d89b41146103a5578063a22cb465146103d05761011f565b806323b872dd116100e757806323b872dd1461021d5780632f745c591461024657806342842e0e146102835780634f6ccce7146102ac5780636352211e146102e95761011f565b806301ffc9a71461012457806306fdde0314610161578063081812fc1461018c578063095ea7b3146101c957806318160ddd146101f2575b600080fd5b34801561013057600080fd5b5061014b60048036038101906101469190612445565b6104f5565b604051610158919061248d565b60405180910390f35b34801561016d57600080fd5b50610176610507565b6040516101839190612538565b60405180910390f35b34801561019857600080fd5b506101b360048036038101906101ae9190612590565b610599565b6040516101c091906125fe565b60405180910390f35b3480156101d557600080fd5b506101f060048036038101906101eb9190612645565b6105df565b005b3480156101fe57600080fd5b506102076106f6565b6040516102149190612694565b60405180910390f35b34801561022957600080fd5b50610244600480360381019061023f91906126af565b610703565b005b34801561025257600080fd5b5061026d60048036038101906102689190612645565b610763565b60405161027a9190612694565b60405180910390f35b34801561028f57600080fd5b506102aa60048036038101906102a591906126af565b610808565b005b3480156102b857600080fd5b506102d360048036038101906102ce9190612590565b610828565b6040516102e09190612694565b60405180910390f35b3480156102f557600080fd5b50610310600480360381019061030b9190612590565b610899565b60405161031d91906125fe565b60405180910390f35b34801561033257600080fd5b5061034d60048036038101906103489190612702565b61091f565b60405161035a9190612694565b60405180910390f35b34801561036f57600080fd5b506103786109d6565b005b34801561038657600080fd5b5061038f6109ea565b60405161039c91906125fe565b60405180910390f35b3480156103b157600080fd5b506103ba610a14565b6040516103c79190612538565b60405180910390f35b3480156103dc57600080fd5b506103f760048036038101906103f2919061275b565b610aa6565b005b34801561040557600080fd5b50610420600480360381019061041b91906128d0565b610abc565b005b34801561042e57600080fd5b5061044960048036038101906104449190612590565b610b1e565b6040516104569190612538565b60405180910390f35b610479600480360381019061047491906129f4565b610b30565b6040516104869190612694565b60405180910390f35b34801561049b57600080fd5b506104b660048036038101906104b19190612a50565b610bad565b6040516104c3919061248d565b60405180910390f35b3480156104d857600080fd5b506104f360048036038101906104ee9190612702565b610c41565b005b600061050082610cc4565b9050919050565b60606000805461051690612abf565b80601f016020809104026020016040519081016040528092919081815260200182805461054290612abf565b801561058f5780601f106105645761010080835404028352916020019161058f565b820191906000526020600020905b81548152906001019060200180831161057257829003601f168201915b5050505050905090565b60006105a482610d3e565b6004600083815260200190815260200160002060009054906101000a900473ffffffffffffffffffffffffffffffffffffffff169050919050565b60006105ea82610899565b90508073ffffffffffffffffffffffffffffffffffffffff168373ffffffffffffffffffffffffffffffffffffffff160361065a576040517f08c379a000000000000000000000000000000000000000000000000000000000815260040161065190612b62565b60405180910390fd5b8073ffffffffffffffffffffffffffffffffffffffff16610679610d89565b73ffffffffffffffffffffffffffffffffffffffff1614806106a857506106a7816106a2610d89565b610bad565b5b6106e7576040517f08c379a00000000000000000000000000000000000000000000000000000000081526004016106de90612bf4565b60405180910390fd5b6106f18383610d91565b505050565b6000600880549050905090565b61071461070e610d89565b82610e4a565b610753576040517f08c379a000000000000000000000000000000000000000000000000000000000815260040161074a90612c86565b60405180910390fd5b61075e838383610edf565b505050565b600061076e8361091f565b82106107af576040517f08c379a00000000000000000000000000000000000000000000000000000000081526004016107a690612d18565b60405180910390fd5b600660008473ffffffffffffffffffffffffffffffffffffffff1673ffffffffffffffffffffffffffffffffffffffff168152602001908152602001600020600083815260200190815260200160002054905092915050565b61082383838360405180602001604052806000815250610abc565b505050565b60006108326106f6565b8210610873576040517f08c379a000000000000000000000000000000000000000000000000000000000815260040161086a90612daa565b60405180910390fd5b6008828154811061088757610886612dca565b5b90600052602060002001549050919050565b6000806108a5836111d8565b9050600073ffffffffffffffffffffffffffffffffffffffff168173ffffffffffffffffffffffffffffffffffffffff1603610916576040517f08c379a000000000000000000000000000000000000000000000000000000000815260040161090d90612e45565b60405180910390fd5b80915050919050565b60008073ffffffffffffffffffffffffffffffffffffffff168273ffffffffffffffffffffffffffffffffffffffff160361098f576040517f08c379a000000000000000000000000000000000000000000000000000000000815260040161098690612ed7565b60405180910390fd5b600360008373ffffffffffffffffffffffffffffffffffffffff1673ffffffffffffffffffffffffffffffffffffffff168152602001908152602001600020549050919050565b6109de611215565b6109e86000611293565b565b6000600b60009054906101000a900473ffffffffffffffffffffffffffffffffffffffff16905090565b606060018054610a2390612abf565b80601f0160208091040260200160405190810160405280929190818152602001828054610a4f90612abf565b8015610a9c5780601f10610a7157610100808354040283529160200191610a9c565b820191906000526020600020905b815481529060010190602001808311610a7f57829003601f168201915b5050505050905090565b610ab8610ab1610d89565b8383611359565b5050565b610acd610ac7610d89565b83610e4a565b610b0c576040517f08c379a0000000000000000000000000000000000000000000000000000000008152600401610b0390612c86565b60405180910390fd5b610b18848484846114c5565b50505050565b6060610b2982611521565b9050919050565b6000600d54341015610b77576040517f08c379a0000000000000000000000000000000000000000000000000000000008152600401610b6e90612f69565b60405180910390fd5b610b81600c611633565b6000610b8d600c611649565b9050610b998482611657565b610ba38184611675565b8091505092915050565b6000600560008473ffffffffffffffffffffffffffffffffffffffff1673ffffffffffffffffffffffffffffffffffffffff16815260200190815260200160002060008373ffffffffffffffffffffffffffffffffffffffff1673ffffffffffffffffffffffffffffffffffffffff16815260200190815260200160002060009054906101000a900460ff16905092915050565b610c49611215565b600073ffffffffffffffffffffffffffffffffffffffff168173ffffffffffffffffffffffffffffffffffffffff1603610cb8576040517f08c379a0000000000000000000000000000000000000000000000000000000008152600401610caf90612ffb565b60405180910390fd5b610cc181611293565b50565b60007f780e9d63000000000000000000000000000000000000000000000000000000007bffffffffffffffffffffffffffffffffffffffffffffffffffffffff1916827bffffffffffffffffffffffffffffffffffffffffffffffffffffffff19161480610d375750610d36826116e2565b5b9050919050565b610d47816117c4565b610d86576040517f08c379a0000000000000000000000000000000000000000000000000000000008152600401610d7d90612e45565b60405180910390fd5b50565b600033905090565b816004600083815260200190815260200160002060006101000a81548173ffffffffffffffffffffffffffffffffffffffff021916908373ffffffffffffffffffffffffffffffffffffffff160217905550808273ffffffffffffffffffffffffffffffffffffffff16610e0483610899565b73ffffffffffffffffffffffffffffffffffffffff167f8c5be1e5ebec7d5bd14f71427d1e84f3dd0314c0f7b2291e5b200ac8c7c3b92560405160405180910390a45050565b600080610e5683610899565b90508073ffffffffffffffffffffffffffffffffffffffff168473ffffffffffffffffffffffffffffffffffffffff161480610e985750610e978185610bad565b5b80610ed657508373ffffffffffffffffffffffffffffffffffffffff16610ebe84610599565b73ffffffffffffffffffffffffffffffffffffffff16145b91505092915050565b8273ffffffffffffffffffffffffffffffffffffffff16610eff82610899565b73ffffffffffffffffffffffffffffffffffffffff1614610f55576040517f08c379a0000000000000000000000000000000000000000000000000000000008152600401610f4c9061308d565b60405180910390fd5b600073ffffffffffffffffffffffffffffffffffffffff168273ffffffffffffffffffffffffffffffffffffffff1603610fc4576040517f08c379a0000000000000000000000000000000000000000000000000000000008152600401610fbb9061311f565b60405180910390fd5b610fd18383836001611805565b8273ffffffffffffffffffffffffffffffffffffffff16610ff182610899565b73ffffffffffffffffffffffffffffffffffffffff1614611047576040517f08c379a000000000000000000000000000000000000000000000000000000000815260040161103e9061308d565b60405180910390fd5b6004600082815260200190815260200160002060006101000a81549073ffffffffffffffffffffffffffffffffffffffff02191690556001600360008573ffffffffffffffffffffffffffffffffffffffff1673ffffffffffffffffffffffffffffffffffffffff168152602001908152602001600020600082825403925050819055506001600360008473ffffffffffffffffffffffffffffffffffffffff1673ffffffffffffffffffffffffffffffffffffffff16815260200190815260200160002060008282540192505081905550816002600083815260200190815260200160002060006101000a81548173ffffffffffffffffffffffffffffffffffffffff021916908373ffffffffffffffffffffffffffffffffffffffff160217905550808273ffffffffffffffffffffffffffffffffffffffff168473ffffffffffffffffffffffffffffffffffffffff167fddf252ad1be2c89b69c2b068fc378daa952ba7f163c4a11628f55a4df523b3ef60405160405180910390a46111d38383836001611817565b505050565b60006002600083815260200190815260200160002060009054906101000a900473ffffffffffffffffffffffffffffffffffffffff169050919050565b61121d610d89565b73ffffffffffffffffffffffffffffffffffffffff1661123b6109ea565b73ffffffffffffffffffffffffffffffffffffffff1614611291576040517f08c379a00000000000000000000000000000000000000000000000000000000081526004016112889061318b565b60405180910390fd5b565b6000600b60009054906101000a900473ffffffffffffffffffffffffffffffffffffffff16905081600b60006101000a81548173ffffffffffffffffffffffffffffffffffffffff021916908373ffffffffffffffffffffffffffffffffffffffff1602179055508173ffffffffffffffffffffffffffffffffffffffff168173ffffffffffffffffffffffffffffffffffffffff167f8be0079c531659141344cd1fd0a4f28419497f9722a3daafe3b4186f6b6457e060405160405180910390a35050565b8173ffffffffffffffffffffffffffffffffffffffff168373ffffffffffffffffffffffffffffffffffffffff16036113c7576040517f08c379a00000000000000000000000000000000000000000000000000000000081526004016113be906131f7565b60405180910390fd5b80600560008573ffffffffffffffffffffffffffffffffffffffff1673ffffffffffffffffffffffffffffffffffffffff16815260200190815260200160002060008473ffffffffffffffffffffffffffffffffffffffff1673ffffffffffffffffffffffffffffffffffffffff16815260200190815260200160002060006101000a81548160ff0219169083151502179055508173ffffffffffffffffffffffffffffffffffffffff168373ffffffffffffffffffffffffffffffffffffffff167f17307eab39ab6107e8899845ad3d59bd9653f200f220920489ca2b5937696c31836040516114b8919061248d565b60405180910390a3505050565b6114d0848484610edf565b6114dc8484848461181d565b61151b576040517f08c379a000000000000000000000000000000000000000000000000000000000815260040161151290613289565b60405180910390fd5b50505050565b606061152c82610d3e565b6000600a6000848152602001908152602001600020805461154c90612abf565b80601f016020809104026020016040519081016040528092919081815260200182805461157890612abf565b80156115c55780601f1061159a576101008083540402835291602001916115c5565b820191906000526020600020905b8154815290600101906020018083116115a857829003601f168201915b5050505050905060006115d66119a4565b905060008151036115eb57819250505061162e565b6000825111156116205780826040516020016116089291906132e5565b6040516020818303038152906040529250505061162e565b611629846119e1565b925050505b919050565b6001816000016000828254019250508190555050565b600081600001549050919050565b611671828260405180602001604052806000815250611a49565b5050565b61167e826117c4565b6116bd576040517f08c379a00000000000000000000000000000000000000000000000000000000081526004016116b49061337b565b60405180910390fd5b80600a600084815260200190815260200160002090816116dd9190613547565b505050565b60007f80ac58cd000000000000000000000000000000000000000000000000000000007bffffffffffffffffffffffffffffffffffffffffffffffffffffffff1916827bffffffffffffffffffffffffffffffffffffffffffffffffffffffff191614806117ad57507f5b5e139f000000000000000000000000000000000000000000000000000000007bffffffffffffffffffffffffffffffffffffffffffffffffffffffff1916827bffffffffffffffffffffffffffffffffffffffffffffffffffffffff1916145b806117bd57506117bc82611aa4565b5b9050919050565b60008073ffffffffffffffffffffffffffffffffffffffff166117e6836111d8565b73ffffffffffffffffffffffffffffffffffffffff1614159050919050565b61181184848484611b0e565b50505050565b50505050565b600061183e8473ffffffffffffffffffffffffffffffffffffffff16611c6c565b15611997578373ffffffffffffffffffffffffffffffffffffffff1663150b7a02611867610d89565b8786866040518563ffffffff1660e01b8152600401611889949392919061366e565b6020604051808303816000875af19250505080156118c557506040513d601f19601f820116820180604052508101906118c291906136cf565b60015b611947573d80600081146118f5576040519150601f19603f3d011682016040523d82523d6000602084013e6118fa565b606091505b50600081510361193f576040517f08c379a000000000000000000000000000000000000000000000000000000000815260040161193690613289565b60405180910390fd5b805181602001fd5b63150b7a0260e01b7bffffffffffffffffffffffffffffffffffffffffffffffffffffffff1916817bffffffffffffffffffffffffffffffffffffffffffffffffffffffff19161491505061199c565b600190505b949350505050565b60606040518060400160405280601581526020017f68747470733a2f2f697066732e696f2f697066732f0000000000000000000000815250905090565b60606119ec82610d3e565b60006119f66119a4565b90506000815111611a165760405180602001604052806000815250611a41565b80611a2084611c8f565b604051602001611a319291906132e5565b6040516020818303038152906040525b915050919050565b611a538383611d5d565b611a60600084848461181d565b611a9f576040517f08c379a0000000000000000000000000000000000000000000000000000000008152600401611a9690613289565b60405180910390fd5b505050565b60007f01ffc9a7000000000000000000000000000000000000000000000000000000007bffffffffffffffffffffffffffffffffffffffffffffffffffffffff1916827bffffffffffffffffffffffffffffffffffffffffffffffffffffffff1916149050919050565b611b1a84848484611f7a565b6001811115611b5e576040517f08c379a0000000000000000000000000000000000000000000000000000000008152600401611b559061376e565b60405180910390fd5b6000829050600073ffffffffffffffffffffffffffffffffffffffff168573ffffffffffffffffffffffffffffffffffffffff1603611ba557611ba081611f80565b611be4565b8373ffffffffffffffffffffffffffffffffffffffff168573ffffffffffffffffffffffffffffffffffffffff1614611be357611be28582611fc9565b5b5b600073ffffffffffffffffffffffffffffffffffffffff168473ffffffffffffffffffffffffffffffffffffffff1603611c2657611c2181612136565b611c65565b8473ffffffffffffffffffffffffffffffffffffffff168473ffffffffffffffffffffffffffffffffffffffff1614611c6457611c638482612207565b5b5b5050505050565b6000808273ffffffffffffffffffffffffffffffffffffffff163b119050919050565b606060006001611c9e84612286565b01905060008167ffffffffffffffff811115611cbd57611cbc6127a5565b5b6040519080825280601f01601f191660200182016040528015611cef5781602001600182028036833780820191505090505b509050600082602001820190505b600115611d52578080600190039150507f3031323334353637383961626364656600000000000000000000000000000000600a86061a8153600a8581611d4657611d4561378e565b5b04945060008503611cfd575b819350505050919050565b600073ffffffffffffffffffffffffffffffffffffffff168273ffffffffffffffffffffffffffffffffffffffff1603611dcc576040517f08c379a0000000000000000000000000000000000000000000000000000000008152600401611dc390613809565b60405180910390fd5b611dd5816117c4565b15611e15576040517f08c379a0000000000000000000000000000000000000000000000000000000008152600401611e0c90613875565b60405180910390fd5b611e23600083836001611805565b611e2c816117c4565b15611e6c576040517f08c379a0000000000000000000000000000000000000000000000000000000008152600401611e6390613875565b60405180910390fd5b6001600360008473ffffffffffffffffffffffffffffffffffffffff1673ffffffffffffffffffffffffffffffffffffffff16815260200190815260200160002060008282540192505081905550816002600083815260200190815260200160002060006101000a81548173ffffffffffffffffffffffffffffffffffffffff021916908373ffffffffffffffffffffffffffffffffffffffff160217905550808273ffffffffffffffffffffffffffffffffffffffff16600073ffffffffffffffffffffffffffffffffffffffff167fddf252ad1be2c89b69c2b068fc378daa952ba7f163c4a11628f55a4df523b3ef60405160405180910390a4611f76600083836001611817565b5050565b50505050565b6008805490506009600083815260200190815260200160002081905550600881908060018154018082558091505060019003906000526020600020016000909190919091505550565b60006001611fd68461091f565b611fe091906138c4565b90506000600760008481526020019081526020016000205490508181146120c5576000600660008673ffffffffffffffffffffffffffffffffffffffff1673ffffffffffffffffffffffffffffffffffffffff168152602001908152602001600020600084815260200190815260200160002054905080600660008773ffffffffffffffffffffffffffffffffffffffff1673ffffffffffffffffffffffffffffffffffffffff168152602001908152602001600020600084815260200190815260200160002081905550816007600083815260200190815260200160002081905550505b6007600084815260200190815260200160002060009055600660008573ffffffffffffffffffffffffffffffffffffffff1673ffffffffffffffffffffffffffffffffffffffff16815260200190815260200160002060008381526020019081526020016000206000905550505050565b6000600160088054905061214a91906138c4565b905060006009600084815260200190815260200160002054905060006008838154811061217a57612179612dca565b5b90600052602060002001549050806008838154811061219c5761219b612dca565b5b9060005260206000200181905550816009600083815260200190815260200160002081905550600960008581526020019081526020016000206000905560088054806121eb576121ea6138f8565b5b6001900381819060005260206000200160009055905550505050565b60006122128361091f565b905081600660008573ffffffffffffffffffffffffffffffffffffffff1673ffffffffffffffffffffffffffffffffffffffff168152602001908152602001600020600083815260200190815260200160002081905550806007600084815260200190815260200160002081905550505050565b600080600090507a184f03e93ff9f4daa797ed6e38ed64bf6a1f01000000000000000083106122e4577a184f03e93ff9f4daa797ed6e38ed64bf6a1f01000000000000000083816122da576122d961378e565b5b0492506040810190505b6d04ee2d6d415b85acef81000000008310612321576d04ee2d6d415b85acef810000000083816123175761231661378e565b5b0492506020810190505b662386f26fc10000831061235057662386f26fc1000083816123465761234561378e565b5b0492506010810190505b6305f5e1008310612379576305f5e100838161236f5761236e61378e565b5b0492506008810190505b612710831061239e5761271083816123945761239361378e565b5b0492506004810190505b606483106123c157606483816123b7576123b661378e565b5b0492506002810190505b600a83106123d0576001810190505b80915050919050565b6000604051905090565b600080fd5b600080fd5b60007fffffffff0000000000000000000000000000000000000000000000000000000082169050919050565b612422816123ed565b811461242d57600080fd5b50565b60008135905061243f81612419565b92915050565b60006020828403121561245b5761245a6123e3565b5b600061246984828501612430565b91505092915050565b60008115159050919050565b61248781612472565b82525050565b60006020820190506124a2600083018461247e565b92915050565b600081519050919050565b600082825260208201905092915050565b60005b838110156124e25780820151818401526020810190506124c7565b60008484015250505050565b6000601f19601f8301169050919050565b600061250a826124a8565b61251481856124b3565b93506125248185602086016124c4565b61252d816124ee565b840191505092915050565b6000602082019050818103600083015261255281846124ff565b905092915050565b6000819050919050565b61256d8161255a565b811461257857600080fd5b50565b60008135905061258a81612564565b92915050565b6000602082840312156125a6576125a56123e3565b5b60006125b48482850161257b565b91505092915050565b600073ffffffffffffffffffffffffffffffffffffffff82169050919050565b60006125e8826125bd565b9050919050565b6125f8816125dd565b82525050565b600060208201905061261360008301846125ef565b92915050565b612622816125dd565b811461262d57600080fd5b50565b60008135905061263f81612619565b92915050565b6000806040838503121561265c5761265b6123e3565b5b600061266a85828601612630565b925050602061267b8582860161257b565b9150509250929050565b61268e8161255a565b82525050565b60006020820190506126a96000830184612685565b92915050565b6000806000606084860312156126c8576126c76123e3565b5b60006126d686828701612630565b93505060206126e786828701612630565b92505060406126f88682870161257b565b9150509250925092565b600060208284031215612718576127176123e3565b5b600061272684828501612630565b91505092915050565b61273881612472565b811461274357600080fd5b50565b6000813590506127558161272f565b92915050565b60008060408385031215612772576127716123e3565b5b600061278085828601612630565b925050602061279185828601612746565b9150509250929050565b600080fd5b600080fd5b7f4e487b7100000000000000000000000000000000000000000000000000000000600052604160045260246000fd5b6127dd826124ee565b810181811067ffffffffffffffff821117156127fc576127fb6127a5565b5b80604052505050565b600061280f6123d9565b905061281b82826127d4565b919050565b600067ffffffffffffffff82111561283b5761283a6127a5565b5b612844826124ee565b9050602081019050919050565b82818337600083830152505050565b600061287361286e84612820565b612805565b90508281526020810184848401111561288f5761288e6127a0565b5b61289a848285612851565b509392505050565b600082601f8301126128b7576128b661279b565b5b81356128c7848260208601612860565b91505092915050565b600080600080608085870312156128ea576128e96123e3565b5b60006128f887828801612630565b945050602061290987828801612630565b935050604061291a8782880161257b565b925050606085013567ffffffffffffffff81111561293b5761293a6123e8565b5b612947878288016128a2565b91505092959194509250565b600067ffffffffffffffff82111561296e5761296d6127a5565b5b612977826124ee565b9050602081019050919050565b600061299761299284612953565b612805565b9050828152602081018484840111156129b3576129b26127a0565b5b6129be848285612851565b509392505050565b600082601f8301126129db576129da61279b565b5b81356129eb848260208601612984565b91505092915050565b60008060408385031215612a0b57612a0a6123e3565b5b6000612a1985828601612630565b925050602083013567ffffffffffffffff811115612a3a57612a396123e8565b5b612a46858286016129c6565b9150509250929050565b60008060408385031215612a6757612a666123e3565b5b6000612a7585828601612630565b9250506020612a8685828601612630565b9150509250929050565b7f4e487b7100000000000000000000000000000000000000000000000000000000600052602260045260246000fd5b60006002820490506001821680612ad757607f821691505b602082108103612aea57612ae9612a90565b5b50919050565b7f4552433732313a20617070726f76616c20746f2063757272656e74206f776e6560008201527f7200000000000000000000000000000000000000000000000000000000000000602082015250565b6000612b4c6021836124b3565b9150612b5782612af0565b604082019050919050565b60006020820190508181036000830152612b7b81612b3f565b9050919050565b7f4552433732313a20617070726f76652063616c6c6572206973206e6f7420746f60008201527f6b656e206f776e6572206f7220617070726f76656420666f7220616c6c000000602082015250565b6000612bde603d836124b3565b9150612be982612b82565b604082019050919050565b60006020820190508181036000830152612c0d81612bd1565b9050919050565b7f4552433732313a2063616c6c6572206973206e6f7420746f6b656e206f776e6560008201527f72206f7220617070726f76656400000000000000000000000000000000000000602082015250565b6000612c70602d836124b3565b9150612c7b82612c14565b604082019050919050565b60006020820190508181036000830152612c9f81612c63565b9050919050565b7f455243373231456e756d657261626c653a206f776e657220696e646578206f7560008201527f74206f6620626f756e6473000000000000000000000000000000000000000000602082015250565b6000612d02602b836124b3565b9150612d0d82612ca6565b604082019050919050565b60006020820190508181036000830152612d3181612cf5565b9050919050565b7f455243373231456e756d657261626c653a20676c6f62616c20696e646578206f60008201527f7574206f6620626f756e64730000000000000000000000000000000000000000602082015250565b6000612d94602c836124b3565b9150612d9f82612d38565b604082019050919050565b60006020820190508181036000830152612dc381612d87565b9050919050565b7f4e487b7100000000000000000000000000000000000000000000000000000000600052603260045260246000fd5b7f4552433732313a20696e76616c696420746f6b656e2049440000000000000000600082015250565b6000612e2f6018836124b3565b9150612e3a82612df9565b602082019050919050565b60006020820190508181036000830152612e5e81612e22565b9050919050565b7f4552433732313a2061646472657373207a65726f206973206e6f74206120766160008201527f6c6964206f776e65720000000000000000000000000000000000000000000000602082015250565b6000612ec16029836124b3565b9150612ecc82612e65565b604082019050919050565b60006020820190508181036000830152612ef081612eb4565b9050919050565b7f4e6f7420656e6f756768204554482073656e743b20636865636b20707269636560008201527f2100000000000000000000000000000000000000000000000000000000000000602082015250565b6000612f536021836124b3565b9150612f5e82612ef7565b604082019050919050565b60006020820190508181036000830152612f8281612f46565b9050919050565b7f4f776e61626c653a206e6577206f776e657220697320746865207a65726f206160008201527f6464726573730000000000000000000000000000000000000000000000000000602082015250565b6000612fe56026836124b3565b9150612ff082612f89565b604082019050919050565b6000602082019050818103600083015261301481612fd8565b9050919050565b7f4552433732313a207472616e736665722066726f6d20696e636f72726563742060008201527f6f776e6572000000000000000000000000000000000000000000000000000000602082015250565b60006130776025836124b3565b91506130828261301b565b604082019050919050565b600060208201905081810360008301526130a68161306a565b9050919050565b7f4552433732313a207472616e7366657220746f20746865207a65726f2061646460008201527f7265737300000000000000000000000000000000000000000000000000000000602082015250565b60006131096024836124b3565b9150613114826130ad565b604082019050919050565b60006020820190508181036000830152613138816130fc565b9050919050565b7f4f776e61626c653a2063616c6c6572206973206e6f7420746865206f776e6572600082015250565b60006131756020836124b3565b91506131808261313f565b602082019050919050565b600060208201905081810360008301526131a481613168565b9050919050565b7f4552433732313a20617070726f766520746f2063616c6c657200000000000000600082015250565b60006131e16019836124b3565b91506131ec826131ab565b602082019050919050565b60006020820190508181036000830152613210816131d4565b9050919050565b7f4552433732313a207472616e7366657220746f206e6f6e20455243373231526560008201527f63656976657220696d706c656d656e7465720000000000000000000000000000602082015250565b60006132736032836124b3565b915061327e82613217565b604082019050919050565b600060208201905081810360008301526132a281613266565b9050919050565b600081905092915050565b60006132bf826124a8565b6132c981856132a9565b93506132d98185602086016124c4565b80840191505092915050565b60006132f182856132b4565b91506132fd82846132b4565b91508190509392505050565b7f45524337323155524953746f726167653a2055524920736574206f66206e6f6e60008201527f6578697374656e7420746f6b656e000000000000000000000000000000000000602082015250565b6000613365602e836124b3565b915061337082613309565b604082019050919050565b6000602082019050818103600083015261339481613358565b9050919050565b60008190508160005260206000209050919050565b60006020601f8301049050919050565b600082821b905092915050565b6000600883026133fd7fffffffffffffffffffffffffffffffffffffffffffffffffffffffffffffffff826133c0565b61340786836133c0565b95508019841693508086168417925050509392505050565b6000819050919050565b600061344461343f61343a8461255a565b61341f565b61255a565b9050919050565b6000819050919050565b61345e83613429565b61347261346a8261344b565b8484546133cd565b825550505050565b600090565b61348761347a565b613492818484613455565b505050565b5b818110156134b6576134ab60008261347f565b600181019050613498565b5050565b601f8211156134fb576134cc8161339b565b6134d5846133b0565b810160208510156134e4578190505b6134f86134f0856133b0565b830182613497565b50505b505050565b600082821c905092915050565b600061351e60001984600802613500565b1980831691505092915050565b6000613537838361350d565b9150826002028217905092915050565b613550826124a8565b67ffffffffffffffff811115613569576135686127a5565b5b6135738254612abf565b61357e8282856134ba565b600060209050601f8311600181146135b1576000841561359f578287015190505b6135a9858261352b565b865550613611565b601f1984166135bf8661339b565b60005b828110156135e7578489015182556001820191506020850194506020810190506135c2565b868310156136045784890151613600601f89168261350d565b8355505b6001600288020188555050505b505050505050565b600081519050919050565b600082825260208201905092915050565b600061364082613619565b61364a8185613624565b935061365a8185602086016124c4565b613663816124ee565b840191505092915050565b600060808201905061368360008301876125ef565b61369060208301866125ef565b61369d6040830185612685565b81810360608301526136af8184613635565b905095945050505050565b6000815190506136c981612419565b92915050565b6000602082840312156136e5576136e46123e3565b5b60006136f3848285016136ba565b91505092915050565b7f455243373231456e756d657261626c653a20636f6e736563757469766520747260008201527f616e7366657273206e6f7420737570706f727465640000000000000000000000602082015250565b60006137586035836124b3565b9150613763826136fc565b604082019050919050565b600060208201905081810360008301526137878161374b565b9050919050565b7f4e487b7100000000000000000000000000000000000000000000000000000000600052601260045260246000fd5b7f4552433732313a206d696e7420746f20746865207a65726f2061646472657373600082015250565b60006137f36020836124b3565b91506137fe826137bd565b602082019050919050565b60006020820190508181036000830152613822816137e6565b9050919050565b7f4552433732313a20746f6b656e20616c7265616479206d696e74656400000000600082015250565b600061385f601c836124b3565b915061386a82613829565b602082019050919050565b6000602082019050818103600083015261388e81613852565b9050919050565b7f4e487b7100000000000000000000000000000000000000000000000000000000600052601160045260246000fd5b60006138cf8261255a565b91506138da8361255a565b92508282039050818111156138f2576138f1613895565b5b92915050565b7f4e487b7100000000000000000000000000000000000000000000000000000000600052603160045260246000fdfea26469706673582212206e28d06eea1cb38e88f3c755fb8dfc710a7cd7d6a20f3d22c867387ab1f42baf64736f6c63430008110033",
  "linkReferences": {},
  "deployedLinkReferences": {}
}