{
  "_format": "hh-sol-artifact-1",
  "contractName": "Action",
  "sourceName": "contracts/ActionCollectible.sol",
  "abi": [
    {
      "inputs": [],
      "stateMutability": "nonpayable",
      "type": "constructor"
    },
    {
      "anonymous": false,
      "inputs": [
        {
          "indexed": true,
          "internalType": "address",
          "name": "owner",
          "type": "address"
        },
        {
          "indexed": true,
          "internalType": "address",
          "name": "approved",
          "type": "address"
        },
        {
          "indexed": true,
          "internalType": "uint256",
          "name": "tokenId",
          "type": "uint256"
        }
      ],
      "name": "Approval",
      "type": "event"
    },
    {
      "anonymous": false,
      "inputs": [
        {
          "indexed": true,
          "internalType": "address",
          "name": "owner",
          "type": "address"
        },
        {
          "indexed": true,
          "internalType": "address",
          "name": "operator",
          "type": "address"
        },
        {
          "indexed": false,
          "internalType": "bool",
          "name": "approved",
          "type": "bool"
        }
      ],
      "name": "ApprovalForAll",
      "type": "event"
    },
    {
      "anonymous": false,
      "inputs": [
        {
          "indexed": true,
          "internalType": "address",
          "name": "from",
          "type": "address"
        },
        {
          "indexed": true,
          "internalType": "address",
          "name": "to",
          "type": "address"
        },
        {
          "indexed": true,
          "internalType": "uint256",
          "name": "tokenId",
          "type": "uint256"
        }
      ],
      "name": "Transfer",
      "type": "event"
    },
    {
      "inputs": [
        {
          "internalType": "address",
          "name": "to",
          "type": "address"
        },
        {
          "internalType": "uint256",
          "name": "tokenId",
          "type": "uint256"
        }
      ],
      "name": "approve",
      "outputs": [],
      "stateMutability": "nonpayable",
      "type": "function"
    },
    {
      "inputs": [
        {
          "internalType": "address",
          "name": "owner",
          "type": "address"
        }
      ],
      "name": "balanceOf",
      "outputs": [
        {
          "internalType": "uint256",
          "name": "",
          "type": "uint256"
        }
      ],
      "stateMutability": "view",
      "type": "function"
    },
    {
      "inputs": [
        {
          "internalType": "uint256",
          "name": "tokenId",
          "type": "uint256"
        }
      ],
      "name": "getApproved",
      "outputs": [
        {
          "internalType": "address",
          "name": "",
          "type": "address"
        }
      ],
      "stateMutability": "view",
      "type": "function"
    },
    {
      "inputs": [
        {
          "internalType": "address",
          "name": "owner",
          "type": "address"
        },
        {
          "internalType": "address",
          "name": "operator",
          "type": "address"
        }
      ],
      "name": "isApprovedForAll",
      "outputs": [
        {
          "internalType": "bool",
          "name": "",
          "type": "bool"
        }
      ],
      "stateMutability": "view",
      "type": "function"
    },
    {
      "inputs": [
        {
          "internalType": "address",
          "name": "recipient",
          "type": "address"
        },
        {
          "internalType": "string",
          "name": "tokenURI",
          "type": "string"
        }
      ],
      "name": "mint",
      "outputs": [
        {
          "internalType": "uint256",
          "name": "",
          "type": "uint256"
        }
      ],
      "stateMutability": "payable",
      "type": "function"
    },
    {
      "inputs": [],
      "name": "name",
      "outputs": [
        {
          "internalType": "string",
          "name": "",
          "type": "string"
        }
      ],
      "stateMutability": "view",
      "type": "function"
    },
    {
      "inputs": [
        {
          "internalType": "uint256",
          "name": "tokenId",
          "type": "uint256"
        }
      ],
      "name": "ownerOf",
      "outputs": [
        {
          "internalType": "address",
          "name": "",
          "type": "address"
        }
      ],
      "stateMutability": "view",
      "type": "function"
    },
    {
      "inputs": [
        {
          "internalType": "address",
          "name": "from",
          "type": "address"
        },
        {
          "internalType": "address",
          "name": "to",
          "type": "address"
        },
        {
          "internalType": "uint256",
          "name": "tokenId",
          "type": "uint256"
        }
      ],
      "name": "safeTransferFrom",
      "outputs": [],
      "stateMutability": "nonpayable",
      "type": "function"
    },
    {
      "inputs": [
        {
          "internalType": "address",
          "name": "from",
          "type": "address"
        },
        {
          "internalType": "address",
          "name": "to",
          "type": "address"
        },
        {
          "internalType": "uint256",
          "name": "tokenId",
          "type": "uint256"
        },
        {
          "internalType": "bytes",
          "name": "data",
          "type": "bytes"
        }
      ],
      "name": "safeTransferFrom",
      "outputs": [],
      "stateMutability": "nonpayable",
      "type": "function"
    },
    {
      "inputs": [
        {
          "internalType": "address",
          "name": "operator",
          "type": "address"
        },
        {
          "internalType": "bool",
          "name": "approved",
          "type": "bool"
        }
      ],
      "name": "setApprovalForAll",
      "outputs": [],
      "stateMutability": "nonpayable",
      "type": "function"
    },
    {
      "inputs": [
        {
          "internalType": "bytes4",
          "name": "interfaceId",
          "type": "bytes4"
        }
      ],
      "name": "supportsInterface",
      "outputs": [
        {
          "internalType": "bool",
          "name": "",
          "type": "bool"
        }
      ],
      "stateMutability": "view",
      "type": "function"
    },
    {
      "inputs": [],
      "name": "symbol",
      "outputs": [
        {
          "internalType": "string",
          "name": "",
          "type": "string"
        }
      ],
      "stateMutability": "view",
      "type": "function"
    },
    {
      "inputs": [
        {
          "internalType": "uint256",
          "name": "tokenId",
          "type": "uint256"
        }
      ],
      "name": "tokenURI",
      "outputs": [
        {
          "internalType": "string",
          "name": "",
          "type": "string"
        }
      ],
      "stateMutability": "view",
      "type": "function"
    },
    {
      "inputs": [],
      "name": "totalSupply",
      "outputs": [
        {
          "internalType": "uint256",
          "name": "",
          "type": "uint256"
        }
      ],
      "stateMutability": "view",
      "type": "function"
    },
    {
      "inputs": [
        {
          "internalType": "address",
          "name": "from",
          "type": "address"
        },
        {
          "internalType": "address",
          "name": "to",
          "type": "address"
        },
        {
          "internalType": "uint256",
          "name": "tokenId",
          "type": "uint256"
        }
      ],
      "name": "transferFrom",
      "outputs": [],
      "stateMutability": "nonpayable",
      "type": "function"
    }
  ],
  "bytecode": "0x60806040526658d15e176280006008553480156200001c57600080fd5b506040518060400160405280600c81526020017f506f6c6c6f636b657371756500000000000000000000000000000000000000008152506040518060400160405280600681526020017f416374696f6e000000000000000000000000000000000000000000000000000081525081600090816200009a91906200032f565b508060019081620000ac91906200032f565b50505062000416565b600081519050919050565b7f4e487b7100000000000000000000000000000000000000000000000000000000600052604160045260246000fd5b7f4e487b7100000000000000000000000000000000000000000000000000000000600052602260045260246000fd5b600060028204905060018216806200013757607f821691505b6020821081036200014d576200014c620000ef565b5b50919050565b60008190508160005260206000209050919050565b60006020601f8301049050919050565b600082821b905092915050565b600060088302620001b77fffffffffffffffffffffffffffffffffffffffffffffffffffffffffffffffff8262000178565b620001c3868362000178565b95508019841693508086168417925050509392505050565b6000819050919050565b6000819050919050565b6000620002106200020a6200020484620001db565b620001e5565b620001db565b9050919050565b6000819050919050565b6200022c83620001ef565b620002446200023b8262000217565b84845462000185565b825550505050565b600090565b6200025b6200024c565b6200026881848462000221565b505050565b5b8181101562000290576200028460008262000251565b6001810190506200026e565b5050565b601f821115620002df57620002a98162000153565b620002b48462000168565b81016020851015620002c4578190505b620002dc620002d38562000168565b8301826200026d565b50505b505050565b600082821c905092915050565b60006200030460001984600802620002e4565b1980831691505092915050565b60006200031f8383620002f1565b9150826002028217905092915050565b6200033a82620000b5565b67ffffffffffffffff811115620003565762000355620000c0565b5b6200036282546200011e565b6200036f82828562000294565b600060209050601f831160018114620003a7576000841562000392578287015190505b6200039e858262000311565b8655506200040e565b601f198416620003b78662000153565b60005b82811015620003e157848901518255600182019150602085019450602081019050620003ba565b86831015620004015784890151620003fd601f891682620002f1565b8355505b6001600288020188555050505b505050505050565b612e6a80620004266000396000f3fe6080604052600436106100e85760003560e01c80636352211e1161008a578063b88d4fde11610059578063b88d4fde14610306578063c87b56dd1461032f578063d0def5211461036c578063e985e9c51461039c576100e8565b80636352211e1461023857806370a082311461027557806395d89b41146102b2578063a22cb465146102dd576100e8565b8063095ea7b3116100c6578063095ea7b31461019257806318160ddd146101bb57806323b872dd146101e657806342842e0e1461020f576100e8565b806301ffc9a7146100ed57806306fdde031461012a578063081812fc14610155575b600080fd5b3480156100f957600080fd5b50610114600480360381019061010f9190611c30565b6103d9565b6040516101219190611c78565b60405180910390f35b34801561013657600080fd5b5061013f6104bb565b60405161014c9190611d23565b60405180910390f35b34801561016157600080fd5b5061017c60048036038101906101779190611d7b565b61054d565b6040516101899190611de9565b60405180910390f35b34801561019e57600080fd5b506101b960048036038101906101b49190611e30565b610593565b005b3480156101c757600080fd5b506101d06106aa565b6040516101dd9190611e7f565b60405180910390f35b3480156101f257600080fd5b5061020d60048036038101906102089190611e9a565b6106bb565b005b34801561021b57600080fd5b5061023660048036038101906102319190611e9a565b61071b565b005b34801561024457600080fd5b5061025f600480360381019061025a9190611d7b565b61073b565b60405161026c9190611de9565b60405180910390f35b34801561028157600080fd5b5061029c60048036038101906102979190611eed565b6107c1565b6040516102a99190611e7f565b60405180910390f35b3480156102be57600080fd5b506102c7610878565b6040516102d49190611d23565b60405180910390f35b3480156102e957600080fd5b5061030460048036038101906102ff9190611f46565b61090a565b005b34801561031257600080fd5b5061032d600480360381019061032891906120bb565b610920565b005b34801561033b57600080fd5b5061035660048036038101906103519190611d7b565b610982565b6040516103639190611d23565b60405180910390f35b610386600480360381019061038191906121df565b610994565b6040516103939190611e7f565b60405180910390f35b3480156103a857600080fd5b506103c360048036038101906103be919061223b565b610a11565b6040516103d09190611c78565b60405180910390f35b60007f80ac58cd000000000000000000000000000000000000000000000000000000007bffffffffffffffffffffffffffffffffffffffffffffffffffffffff1916827bffffffffffffffffffffffffffffffffffffffffffffffffffffffff191614806104a457507f5b5e139f000000000000000000000000000000000000000000000000000000007bffffffffffffffffffffffffffffffffffffffffffffffffffffffff1916827bffffffffffffffffffffffffffffffffffffffffffffffffffffffff1916145b806104b457506104b382610aa5565b5b9050919050565b6060600080546104ca906122aa565b80601f01602080910402602001604051908101604052809291908181526020018280546104f6906122aa565b80156105435780601f1061051857610100808354040283529160200191610543565b820191906000526020600020905b81548152906001019060200180831161052657829003601f168201915b5050505050905090565b600061055882610b0f565b6004600083815260200190815260200160002060009054906101000a900473ffffffffffffffffffffffffffffffffffffffff169050919050565b600061059e8261073b565b90508073ffffffffffffffffffffffffffffffffffffffff168373ffffffffffffffffffffffffffffffffffffffff160361060e576040517f08c379a00000000000000000000000000000000000000000000000000000000081526004016106059061234d565b60405180910390fd5b8073ffffffffffffffffffffffffffffffffffffffff1661062d610b5a565b73ffffffffffffffffffffffffffffffffffffffff16148061065c575061065b81610656610b5a565b610a11565b5b61069b576040517f08c379a0000000000000000000000000000000000000000000000000000000008152600401610692906123df565b60405180910390fd5b6106a58383610b62565b505050565b60006106b66007610c1b565b905090565b6106cc6106c6610b5a565b82610c29565b61070b576040517f08c379a000000000000000000000000000000000000000000000000000000000815260040161070290612471565b60405180910390fd5b610716838383610cbe565b505050565b61073683838360405180602001604052806000815250610920565b505050565b60008061074783610fb7565b9050600073ffffffffffffffffffffffffffffffffffffffff168173ffffffffffffffffffffffffffffffffffffffff16036107b8576040517f08c379a00000000000000000000000000000000000000000000000000000000081526004016107af906124dd565b60405180910390fd5b80915050919050565b60008073ffffffffffffffffffffffffffffffffffffffff168273ffffffffffffffffffffffffffffffffffffffff1603610831576040517f08c379a00000000000000000000000000000000000000000000000000000000081526004016108289061256f565b60405180910390fd5b600360008373ffffffffffffffffffffffffffffffffffffffff1673ffffffffffffffffffffffffffffffffffffffff168152602001908152602001600020549050919050565b606060018054610887906122aa565b80601f01602080910402602001604051908101604052809291908181526020018280546108b3906122aa565b80156109005780601f106108d557610100808354040283529160200191610900565b820191906000526020600020905b8154815290600101906020018083116108e357829003601f168201915b5050505050905090565b61091c610915610b5a565b8383610ff4565b5050565b61093161092b610b5a565b83610c29565b610970576040517f08c379a000000000000000000000000000000000000000000000000000000000815260040161096790612471565b60405180910390fd5b61097c84848484611160565b50505050565b606061098d826111bc565b9050919050565b60006008543410156109db576040517f08c379a00000000000000000000000000000000000000000000000000000000081526004016109d290612601565b60405180910390fd5b6109e560076112ce565b60006109f16007610c1b565b90506109fd84826112e4565b610a078184611302565b8091505092915050565b6000600560008473ffffffffffffffffffffffffffffffffffffffff1673ffffffffffffffffffffffffffffffffffffffff16815260200190815260200160002060008373ffffffffffffffffffffffffffffffffffffffff1673ffffffffffffffffffffffffffffffffffffffff16815260200190815260200160002060009054906101000a900460ff16905092915050565b60007f01ffc9a7000000000000000000000000000000000000000000000000000000007bffffffffffffffffffffffffffffffffffffffffffffffffffffffff1916827bffffffffffffffffffffffffffffffffffffffffffffffffffffffff1916149050919050565b610b188161136f565b610b57576040517f08c379a0000000000000000000000000000000000000000000000000000000008152600401610b4e906124dd565b60405180910390fd5b50565b600033905090565b816004600083815260200190815260200160002060006101000a81548173ffffffffffffffffffffffffffffffffffffffff021916908373ffffffffffffffffffffffffffffffffffffffff160217905550808273ffffffffffffffffffffffffffffffffffffffff16610bd58361073b565b73ffffffffffffffffffffffffffffffffffffffff167f8c5be1e5ebec7d5bd14f71427d1e84f3dd0314c0f7b2291e5b200ac8c7c3b92560405160405180910390a45050565b600081600001549050919050565b600080610c358361073b565b90508073ffffffffffffffffffffffffffffffffffffffff168473ffffffffffffffffffffffffffffffffffffffff161480610c775750610c768185610a11565b5b80610cb557508373ffffffffffffffffffffffffffffffffffffffff16610c9d8461054d565b73ffffffffffffffffffffffffffffffffffffffff16145b91505092915050565b8273ffffffffffffffffffffffffffffffffffffffff16610cde8261073b565b73ffffffffffffffffffffffffffffffffffffffff1614610d34576040517f08c379a0000000000000000000000000000000000000000000000000000000008152600401610d2b90612693565b60405180910390fd5b600073ffffffffffffffffffffffffffffffffffffffff168273ffffffffffffffffffffffffffffffffffffffff1603610da3576040517f08c379a0000000000000000000000000000000000000000000000000000000008152600401610d9a90612725565b60405180910390fd5b610db083838360016113b0565b8273ffffffffffffffffffffffffffffffffffffffff16610dd08261073b565b73ffffffffffffffffffffffffffffffffffffffff1614610e26576040517f08c379a0000000000000000000000000000000000000000000000000000000008152600401610e1d90612693565b60405180910390fd5b6004600082815260200190815260200160002060006101000a81549073ffffffffffffffffffffffffffffffffffffffff02191690556001600360008573ffffffffffffffffffffffffffffffffffffffff1673ffffffffffffffffffffffffffffffffffffffff168152602001908152602001600020600082825403925050819055506001600360008473ffffffffffffffffffffffffffffffffffffffff1673ffffffffffffffffffffffffffffffffffffffff16815260200190815260200160002060008282540192505081905550816002600083815260200190815260200160002060006101000a81548173ffffffffffffffffffffffffffffffffffffffff021916908373ffffffffffffffffffffffffffffffffffffffff160217905550808273ffffffffffffffffffffffffffffffffffffffff168473ffffffffffffffffffffffffffffffffffffffff167fddf252ad1be2c89b69c2b068fc378daa952ba7f163c4a11628f55a4df523b3ef60405160405180910390a4610fb283838360016114d6565b505050565b60006002600083815260200190815260200160002060009054906101000a900473ffffffffffffffffffffffffffffffffffffffff169050919050565b8173ffffffffffffffffffffffffffffffffffffffff168373ffffffffffffffffffffffffffffffffffffffff1603611062576040517f08c379a000000000000000000000000000000000000000000000000000000000815260040161105990612791565b60405180910390fd5b80600560008573ffffffffffffffffffffffffffffffffffffffff1673ffffffffffffffffffffffffffffffffffffffff16815260200190815260200160002060008473ffffffffffffffffffffffffffffffffffffffff1673ffffffffffffffffffffffffffffffffffffffff16815260200190815260200160002060006101000a81548160ff0219169083151502179055508173ffffffffffffffffffffffffffffffffffffffff168373ffffffffffffffffffffffffffffffffffffffff167f17307eab39ab6107e8899845ad3d59bd9653f200f220920489ca2b5937696c31836040516111539190611c78565b60405180910390a3505050565b61116b848484610cbe565b611177848484846114dc565b6111b6576040517f08c379a00000000000000000000000000000000000000000000000000000000081526004016111ad90612823565b60405180910390fd5b50505050565b60606111c782610b0f565b60006006600084815260200190815260200160002080546111e7906122aa565b80601f0160208091040260200160405190810160405280929190818152602001828054611213906122aa565b80156112605780601f1061123557610100808354040283529160200191611260565b820191906000526020600020905b81548152906001019060200180831161124357829003601f168201915b505050505090506000611271611663565b905060008151036112865781925050506112c9565b6000825111156112bb5780826040516020016112a392919061287f565b604051602081830303815290604052925050506112c9565b6112c4846116a0565b925050505b919050565b6001816000016000828254019250508190555050565b6112fe828260405180602001604052806000815250611708565b5050565b61130b8261136f565b61134a576040517f08c379a000000000000000000000000000000000000000000000000000000000815260040161134190612915565b60405180910390fd5b8060066000848152602001908152602001600020908161136a9190612ae1565b505050565b60008073ffffffffffffffffffffffffffffffffffffffff1661139183610fb7565b73ffffffffffffffffffffffffffffffffffffffff1614159050919050565b60018111156114d057600073ffffffffffffffffffffffffffffffffffffffff168473ffffffffffffffffffffffffffffffffffffffff16146114445780600360008673ffffffffffffffffffffffffffffffffffffffff1673ffffffffffffffffffffffffffffffffffffffff168152602001908152602001600020600082825461143c9190612be2565b925050819055505b600073ffffffffffffffffffffffffffffffffffffffff168373ffffffffffffffffffffffffffffffffffffffff16146114cf5780600360008573ffffffffffffffffffffffffffffffffffffffff1673ffffffffffffffffffffffffffffffffffffffff16815260200190815260200160002060008282546114c79190612c16565b925050819055505b5b50505050565b50505050565b60006114fd8473ffffffffffffffffffffffffffffffffffffffff16611763565b15611656578373ffffffffffffffffffffffffffffffffffffffff1663150b7a02611526610b5a565b8786866040518563ffffffff1660e01b81526004016115489493929190612c9f565b6020604051808303816000875af192505050801561158457506040513d601f19601f820116820180604052508101906115819190612d00565b60015b611606573d80600081146115b4576040519150601f19603f3d011682016040523d82523d6000602084013e6115b9565b606091505b5060008151036115fe576040517f08c379a00000000000000000000000000000000000000000000000000000000081526004016115f590612823565b60405180910390fd5b805181602001fd5b63150b7a0260e01b7bffffffffffffffffffffffffffffffffffffffffffffffffffffffff1916817bffffffffffffffffffffffffffffffffffffffffffffffffffffffff19161491505061165b565b600190505b949350505050565b60606040518060400160405280601581526020017f68747470733a2f2f697066732e696f2f697066732f0000000000000000000000815250905090565b60606116ab82610b0f565b60006116b5611663565b905060008151116116d55760405180602001604052806000815250611700565b806116df84611786565b6040516020016116f092919061287f565b6040516020818303038152906040525b915050919050565b6117128383611854565b61171f60008484846114dc565b61175e576040517f08c379a000000000000000000000000000000000000000000000000000000000815260040161175590612823565b60405180910390fd5b505050565b6000808273ffffffffffffffffffffffffffffffffffffffff163b119050919050565b60606000600161179584611a71565b01905060008167ffffffffffffffff8111156117b4576117b3611f90565b5b6040519080825280601f01601f1916602001820160405280156117e65781602001600182028036833780820191505090505b509050600082602001820190505b600115611849578080600190039150507f3031323334353637383961626364656600000000000000000000000000000000600a86061a8153600a858161183d5761183c612d2d565b5b049450600085036117f4575b819350505050919050565b600073ffffffffffffffffffffffffffffffffffffffff168273ffffffffffffffffffffffffffffffffffffffff16036118c3576040517f08c379a00000000000000000000000000000000000000000000000000000000081526004016118ba90612da8565b60405180910390fd5b6118cc8161136f565b1561190c576040517f08c379a000000000000000000000000000000000000000000000000000000000815260040161190390612e14565b60405180910390fd5b61191a6000838360016113b0565b6119238161136f565b15611963576040517f08c379a000000000000000000000000000000000000000000000000000000000815260040161195a90612e14565b60405180910390fd5b6001600360008473ffffffffffffffffffffffffffffffffffffffff1673ffffffffffffffffffffffffffffffffffffffff16815260200190815260200160002060008282540192505081905550816002600083815260200190815260200160002060006101000a81548173ffffffffffffffffffffffffffffffffffffffff021916908373ffffffffffffffffffffffffffffffffffffffff160217905550808273ffffffffffffffffffffffffffffffffffffffff16600073ffffffffffffffffffffffffffffffffffffffff167fddf252ad1be2c89b69c2b068fc378daa952ba7f163c4a11628f55a4df523b3ef60405160405180910390a4611a6d6000838360016114d6565b5050565b600080600090507a184f03e93ff9f4daa797ed6e38ed64bf6a1f0100000000000000008310611acf577a184f03e93ff9f4daa797ed6e38ed64bf6a1f0100000000000000008381611ac557611ac4612d2d565b5b0492506040810190505b6d04ee2d6d415b85acef81000000008310611b0c576d04ee2d6d415b85acef81000000008381611b0257611b01612d2d565b5b0492506020810190505b662386f26fc100008310611b3b57662386f26fc100008381611b3157611b30612d2d565b5b0492506010810190505b6305f5e1008310611b64576305f5e1008381611b5a57611b59612d2d565b5b0492506008810190505b6127108310611b89576127108381611b7f57611b7e612d2d565b5b0492506004810190505b60648310611bac5760648381611ba257611ba1612d2d565b5b0492506002810190505b600a8310611bbb576001810190505b80915050919050565b6000604051905090565b600080fd5b600080fd5b60007fffffffff0000000000000000000000000000000000000000000000000000000082169050919050565b611c0d81611bd8565b8114611c1857600080fd5b50565b600081359050611c2a81611c04565b92915050565b600060208284031215611c4657611c45611bce565b5b6000611c5484828501611c1b565b91505092915050565b60008115159050919050565b611c7281611c5d565b82525050565b6000602082019050611c8d6000830184611c69565b92915050565b600081519050919050565b600082825260208201905092915050565b60005b83811015611ccd578082015181840152602081019050611cb2565b60008484015250505050565b6000601f19601f8301169050919050565b6000611cf582611c93565b611cff8185611c9e565b9350611d0f818560208601611caf565b611d1881611cd9565b840191505092915050565b60006020820190508181036000830152611d3d8184611cea565b905092915050565b6000819050919050565b611d5881611d45565b8114611d6357600080fd5b50565b600081359050611d7581611d4f565b92915050565b600060208284031215611d9157611d90611bce565b5b6000611d9f84828501611d66565b91505092915050565b600073ffffffffffffffffffffffffffffffffffffffff82169050919050565b6000611dd382611da8565b9050919050565b611de381611dc8565b82525050565b6000602082019050611dfe6000830184611dda565b92915050565b611e0d81611dc8565b8114611e1857600080fd5b50565b600081359050611e2a81611e04565b92915050565b60008060408385031215611e4757611e46611bce565b5b6000611e5585828601611e1b565b9250506020611e6685828601611d66565b9150509250929050565b611e7981611d45565b82525050565b6000602082019050611e946000830184611e70565b92915050565b600080600060608486031215611eb357611eb2611bce565b5b6000611ec186828701611e1b565b9350506020611ed286828701611e1b565b9250506040611ee386828701611d66565b9150509250925092565b600060208284031215611f0357611f02611bce565b5b6000611f1184828501611e1b565b91505092915050565b611f2381611c5d565b8114611f2e57600080fd5b50565b600081359050611f4081611f1a565b92915050565b60008060408385031215611f5d57611f5c611bce565b5b6000611f6b85828601611e1b565b9250506020611f7c85828601611f31565b9150509250929050565b600080fd5b600080fd5b7f4e487b7100000000000000000000000000000000000000000000000000000000600052604160045260246000fd5b611fc882611cd9565b810181811067ffffffffffffffff82111715611fe757611fe6611f90565b5b80604052505050565b6000611ffa611bc4565b90506120068282611fbf565b919050565b600067ffffffffffffffff82111561202657612025611f90565b5b61202f82611cd9565b9050602081019050919050565b82818337600083830152505050565b600061205e6120598461200b565b611ff0565b90508281526020810184848401111561207a57612079611f8b565b5b61208584828561203c565b509392505050565b600082601f8301126120a2576120a1611f86565b5b81356120b284826020860161204b565b91505092915050565b600080600080608085870312156120d5576120d4611bce565b5b60006120e387828801611e1b565b94505060206120f487828801611e1b565b935050604061210587828801611d66565b925050606085013567ffffffffffffffff81111561212657612125611bd3565b5b6121328782880161208d565b91505092959194509250565b600067ffffffffffffffff82111561215957612158611f90565b5b61216282611cd9565b9050602081019050919050565b600061218261217d8461213e565b611ff0565b90508281526020810184848401111561219e5761219d611f8b565b5b6121a984828561203c565b509392505050565b600082601f8301126121c6576121c5611f86565b5b81356121d684826020860161216f565b91505092915050565b600080604083850312156121f6576121f5611bce565b5b600061220485828601611e1b565b925050602083013567ffffffffffffffff81111561222557612224611bd3565b5b612231858286016121b1565b9150509250929050565b6000806040838503121561225257612251611bce565b5b600061226085828601611e1b565b925050602061227185828601611e1b565b9150509250929050565b7f4e487b7100000000000000000000000000000000000000000000000000000000600052602260045260246000fd5b600060028204905060018216806122c257607f821691505b6020821081036122d5576122d461227b565b5b50919050565b7f4552433732313a20617070726f76616c20746f2063757272656e74206f776e6560008201527f7200000000000000000000000000000000000000000000000000000000000000602082015250565b6000612337602183611c9e565b9150612342826122db565b604082019050919050565b600060208201905081810360008301526123668161232a565b9050919050565b7f4552433732313a20617070726f76652063616c6c6572206973206e6f7420746f60008201527f6b656e206f776e6572206f7220617070726f76656420666f7220616c6c000000602082015250565b60006123c9603d83611c9e565b91506123d48261236d565b604082019050919050565b600060208201905081810360008301526123f8816123bc565b9050919050565b7f4552433732313a2063616c6c6572206973206e6f7420746f6b656e206f776e6560008201527f72206f7220617070726f76656400000000000000000000000000000000000000602082015250565b600061245b602d83611c9e565b9150612466826123ff565b604082019050919050565b6000602082019050818103600083015261248a8161244e565b9050919050565b7f4552433732313a20696e76616c696420746f6b656e2049440000000000000000600082015250565b60006124c7601883611c9e565b91506124d282612491565b602082019050919050565b600060208201905081810360008301526124f6816124ba565b9050919050565b7f4552433732313a2061646472657373207a65726f206973206e6f74206120766160008201527f6c6964206f776e65720000000000000000000000000000000000000000000000602082015250565b6000612559602983611c9e565b9150612564826124fd565b604082019050919050565b600060208201905081810360008301526125888161254c565b9050919050565b7f4e6f7420656e6f756768204554482073656e743b20636865636b20707269636560008201527f2100000000000000000000000000000000000000000000000000000000000000602082015250565b60006125eb602183611c9e565b91506125f68261258f565b604082019050919050565b6000602082019050818103600083015261261a816125de565b9050919050565b7f4552433732313a207472616e736665722066726f6d20696e636f72726563742060008201527f6f776e6572000000000000000000000000000000000000000000000000000000602082015250565b600061267d602583611c9e565b915061268882612621565b604082019050919050565b600060208201905081810360008301526126ac81612670565b9050919050565b7f4552433732313a207472616e7366657220746f20746865207a65726f2061646460008201527f7265737300000000000000000000000000000000000000000000000000000000602082015250565b600061270f602483611c9e565b915061271a826126b3565b604082019050919050565b6000602082019050818103600083015261273e81612702565b9050919050565b7f4552433732313a20617070726f766520746f2063616c6c657200000000000000600082015250565b600061277b601983611c9e565b915061278682612745565b602082019050919050565b600060208201905081810360008301526127aa8161276e565b9050919050565b7f4552433732313a207472616e7366657220746f206e6f6e20455243373231526560008201527f63656976657220696d706c656d656e7465720000000000000000000000000000602082015250565b600061280d603283611c9e565b9150612818826127b1565b604082019050919050565b6000602082019050818103600083015261283c81612800565b9050919050565b600081905092915050565b600061285982611c93565b6128638185612843565b9350612873818560208601611caf565b80840191505092915050565b600061288b828561284e565b9150612897828461284e565b91508190509392505050565b7f45524337323155524953746f726167653a2055524920736574206f66206e6f6e60008201527f6578697374656e7420746f6b656e000000000000000000000000000000000000602082015250565b60006128ff602e83611c9e565b915061290a826128a3565b604082019050919050565b6000602082019050818103600083015261292e816128f2565b9050919050565b60008190508160005260206000209050919050565b60006020601f8301049050919050565b600082821b905092915050565b6000600883026129977fffffffffffffffffffffffffffffffffffffffffffffffffffffffffffffffff8261295a565b6129a1868361295a565b95508019841693508086168417925050509392505050565b6000819050919050565b60006129de6129d96129d484611d45565b6129b9565b611d45565b9050919050565b6000819050919050565b6129f8836129c3565b612a0c612a04826129e5565b848454612967565b825550505050565b600090565b612a21612a14565b612a2c8184846129ef565b505050565b5b81811015612a5057612a45600082612a19565b600181019050612a32565b5050565b601f821115612a9557612a6681612935565b612a6f8461294a565b81016020851015612a7e578190505b612a92612a8a8561294a565b830182612a31565b50505b505050565b600082821c905092915050565b6000612ab860001984600802612a9a565b1980831691505092915050565b6000612ad18383612aa7565b9150826002028217905092915050565b612aea82611c93565b67ffffffffffffffff811115612b0357612b02611f90565b5b612b0d82546122aa565b612b18828285612a54565b600060209050601f831160018114612b4b5760008415612b39578287015190505b612b438582612ac5565b865550612bab565b601f198416612b5986612935565b60005b82811015612b8157848901518255600182019150602085019450602081019050612b5c565b86831015612b9e5784890151612b9a601f891682612aa7565b8355505b6001600288020188555050505b505050505050565b7f4e487b7100000000000000000000000000000000000000000000000000000000600052601160045260246000fd5b6000612bed82611d45565b9150612bf883611d45565b9250828203905081811115612c1057612c0f612bb3565b5b92915050565b6000612c2182611d45565b9150612c2c83611d45565b9250828201905080821115612c4457612c43612bb3565b5b92915050565b600081519050919050565b600082825260208201905092915050565b6000612c7182612c4a565b612c7b8185612c55565b9350612c8b818560208601611caf565b612c9481611cd9565b840191505092915050565b6000608082019050612cb46000830187611dda565b612cc16020830186611dda565b612cce6040830185611e70565b8181036060830152612ce08184612c66565b905095945050505050565b600081519050612cfa81611c04565b92915050565b600060208284031215612d1657612d15611bce565b5b6000612d2484828501612ceb565b91505092915050565b7f4e487b7100000000000000000000000000000000000000000000000000000000600052601260045260246000fd5b7f4552433732313a206d696e7420746f20746865207a65726f2061646472657373600082015250565b6000612d92602083611c9e565b9150612d9d82612d5c565b602082019050919050565b60006020820190508181036000830152612dc181612d85565b9050919050565b7f4552433732313a20746f6b656e20616c7265616479206d696e74656400000000600082015250565b6000612dfe601c83611c9e565b9150612e0982612dc8565b602082019050919050565b60006020820190508181036000830152612e2d81612df1565b905091905056fea26469706673582212202df68cdb3141e80f6224de9729c25bfa2d262bc094dc32aa92e4a88cca138d4764736f6c63430008110033",
  "linkReferences": {},
  "deployedLinkReferences": {}
}